:040000008031A4287F
:100008007E1480312000911E422823001908200008
:10001800EE000330F500F601F701F801210024088D
:10002800F5072508F63D2608F73D2708F83D73082B
:100038007802031D292872087702031D29287108F0
:100048007602031D292870087502031CBF0132308F
:100058003F060319BF033F08A03E86000230870011
:1000680020006E0881002100BF0A7308A7007208EB
:10007800A6007108A5007008A4000628111E5C28B7
:100088002100111E5C287408A03E860001308700FC
:10009800010823009A00F40A740820006C0603196A
:1000A800592832307406031D5C2821001112F4010E
:1000B8002000921CA2280130F0070030F13DF23DEB
:1000C800F33DF430F5000130F600F701F8012100A6
:1000D8002008F5072108F63D2208F73D2308F83DDA
:1000E80073087802031D822872087702031D82288C
:1000F80071087602031D8228700875020318862885
:1001080022000E107408031DA02823009E1CA0289E
:1001180020006D080319A02822008C102000ED0192
:1001280021006A080319A0289112403023009B007F
:1001380003309C0021009116200092107E100900C7
:100148008031A62821000230E401E500E601E7003D
:10015800E801E9000130EA00F001F101F201F301E0
:10016800F4012000A030EC01ED01EE018400003024
:1001780085002C308731EC27803120308400013015
:1001880085003E308731EC278031A0308400013073
:10019800850032308731EC278031203084000230EE
:1001A800850032308731EC278031A030840002305E
:1001B800850032308731EC2780317E102000E4281A
:1001C8002100DD01DE0187319E278031730832244A
:1001D8008031EA01EA0A23009D1C01291D121D161F
:1001E800883070072100EB001330713DEC000030BF
:1001F800723DED000030733DEE00073021003F02F4
:10020800031CCC2903302000E800E901EA01EB01D6
:10021800210024082000E807210025082000E93DE6
:10022800210026082000EA3D210027085D248031AE
:10023800031D282972086A02031D2829710869020A
:10024800031D2829700868020318CC29203086006D
:1002580002308700A03084000230850021003F086A
:100268002000E800680803193D2912001E00E80B69
:10027800392921003F08BE002030BF012000A0001E
:100288000230A10021003E082000A200A0238031F6
:10029800422480312100DF000A3024002006031D9B
:1002A800CC2904302106031DCC2914302506031D52
:1002B800CC2921005F086004031DCC29730832246F
:1002C80080310A30EA012200AC000430AD00283049
:1002D800AE000F30AF01B0000330B101B2000730FB
:1002E8002100E300E20163082C3E8600013087000C
:1002F80018308101E30AE20A6202031C7729E2014D
:100308003E302000AB009930AA00A9009A30A8001E
:100318005024403F2000AC00413FAD00423FAE00BA
:10032800433FAF008431A124803150248031200024
:100338002808C03F2908C13F2A08C23F2B08C33FED
:10034800210026248031033E840085011F2480314A
:100358006108023E84001F248031610A84001F2442
:10036800803161083A248031031C84292C30200014
:10037800A0000130A100210063082000A200A023F2
:100388008031422480310924873121278031DE01E0
:1003980084302000E8000330E900EA01EB01210085
:1003A8006B082000E80721006C082000E93D2100C7
:1003B8006D082000EA3D21006E085D248031031D90
:1003C800EF2972086A02031DEF2971086902031DEB
:1003D800EF29700868020318EF28730821003224F7
:1003E80080315E08031D302A003071228031670891
:1003F8002100C300200066082100C2002000650813
:100408002100C100200064082100C00001307122D1
:10041800803167082100C700200066082100C60057
:10042800200065082100C500200064082100C400E0
:1004380002307122803167082100CB002000660855
:100448002100CA00200065082100C90020006408B6
:100458002100C800DE01DE0A6A080319EF2802300D
:10046800DD0A5D02031CEF28FF30DD012200AC002D
:100478000330AD005030AE000330AF01AF0AB00119
:10048800B00AB10006302100E300E20126248031E1
:10049800840085011F248031610A84001F24803173
:1004A8006108023E84001F2480316108033E3A241B
:1004B8008031031C4A2A63082000A0002C306224E3
:1004C800803121082100E000200020080924A10A29
:1004D800873121278031DE01EF28DC00D501D601E4
:1004E800D701D8015C08031D7B2A0330802A5C0BE6
:1004F8007F2A0730802A0530D900CC00CC0DCC0DDE
:100508001D084C0683394C069D005C35E43E860088
:100518008701403FBA00413FBB0048248031403F3B
:10052800B400413FB500423FB600433FB700DA018F
:10053800DB013B08BD003A08BC00D9238031210803
:100548002100BB00200020082100BA003B08B900A8
:100558003A08B8003C08B8023D08B93B3808CC0056
:100568003908CD000030CD1BFF30CE00CF004E083B
:10057800CF004D08CE004C08CD00CC014F08AF008D
:100588004E08AE004D08AD004C08AC003408AC076E
:100598003508AD3D3608AE3D3708AF3D2C08CC00D8
:1005A8002D08CD002E08CE002F08CF000830D0002F
:1005B80058248031D00BDC2A2C08D1002D08D20019
:1005C8002E08D3002F08D4004C08D1024D08D23B86
:1005D8004E08D33B4F08D43B5408B7005308B60025
:1005E8005208B5005108B400CC003508CD003608D3
:1005F800CE003708CF000230D00058248031D00B0D
:10060800012B4F08B3004E08B2004D08B1004C084A
:10061800B00033082000A300210032082000A20007
:10062800210031082000A100210030082000A0008E
:10063800210033082000A700210032082000A6006E
:10064800210031082000A500210030082000A40066
:10065800E423803123082100AB0020002208210078
:10066800AA00200021082100A9002000200821005C
:10067800A8000C30CC00AB37AA0CA90CA80CCC0BEA
:100688003F2B2808D5072908D63D2A08D73D2B082F
:10069800D83DDA0A0319DB0A08305B020030031977
:1006A8005A02031C9D2A5C35E43E860087013A08FD
:1006B800C03F3B08C13F48243408C03F3508C13F0C
:1006C8003608C23F3708C33F45302000B100B001AB
:1006D800AF01AE01210058082000A30021005708EF
:1006E8002000A200210056082000A1002100550882
:1006F8002000A00001308E31A12680312308B500EA
:100708002208B4002108B3002008B2008631172659
:1007180080313108CA003008C9002F08C8002E08E7
:10072800C7008F310F274A08E7004908E600480844
:10073800E5004708E4000800FF30A700A800A3016F
:10074800A4012408803AF90080307902031DAE2BF9
:10075800220823020318D32B200023082007860031
:100768002408213D87000108A7060830A500A60136
:10077800271CC52B0130A836A70CA706A030A80651
:10078800C72BA836A70CFF30A507031CA60325080E
:100798002604031DBC2BA30A0319A40AA52B2000B9
:1007A8002808A1002708A00008009D149D18DA2B2E
:1007B8001C082000A10021001B082000A000080040
:1007C800A801A901AA01AB01201CF22B2408A80743
:1007D8002508A93D2608AA3D2708AB3DA435A50D47
:1007E800A60DA70DA336A20CA10CA00C2308220469
:1007F80021042004031DE82B2B08A3002A08A200CB
:100808002908A1002808A00008002100DF006308CB
:100818002C3E8600013087005F088100E30A6308E8
:100828002C3E860060088100E30A63082000A000CF
:100838002C30A101080000088100E30A63082C3E5F
:1008480086000800620809070907C03EE10063083E
:100858002C3E86000130870061080800EE0072080F
:10086800ED007108EC007008EB0008008400000837
:1008780081000330E30AE20A62020800210821002D
:10088800E0002000200808005C0809070907203E4E
:10089800860001308700080021006208090709075F
:1008A800C03E860087010800CF37CE0CCD0CCC0C9B
:1008B80008002000EB3D73086B020800A600FF301B
:1008C800A900AA00962C2608860001308700010896
:1008D800A400A501A701A801200024082906A20058
:1008E800221C832C2A08A3002908A2000830A3365A
:1008F800A20C2206A90084302306AA00852CAA3659
:10090800A90CA536A40CA70A0319A80A2808803A36
:10091800A20080302202083003192702031C702C21
:100928002000A60AA003200F672CFF30A906AA06FC
:100938002A08A1002908A00008002B08B40080306C
:10094800B4052B35B600AA1B361436080319B22C89
:10095800360FB02C12268431AA17B42C12268431F3
:100968002F088039B4062F35B500AE1B351435086D
:100978000319C42C350FC22C0D268431AE17C62C92
:100988000D2684313508031D3608031DD02CA80117
:10099800A901AA01AB0108002808A0002E08BB2560
:1009A80084312108C0002008BF00B700B801B90190
:1009B800BA014008BB00BC01BD01BE012908A00066
:1009C8002D08BB2584312108ED258431BB07013072
:1009D8000318BC070318BD070318BE072A08A000A0
:1009E8002C08BB2584312108ED258431DD2584318F
:1009F8002908A0002C08BB258431D2258431280879
:100A0800A0002D08BB258431D22584313908BA00CD
:100A18003808B9003708B800B7012808A0002C0822
:100A2800BB258431D22584312908A0002E08BB2596
:100A38008431FA2584312D08BB258431FA25843187
:100A48002E08BB2584312108C0002008BF00B00053
:100A58004008B100B201B3013208B3003108B20056
:100A68003008B100B0013008BB073108BC3D32087E
:100A7800BD3D3308BE3D3A08DD2584313608BF0048
:100A8800C0013508BF070318C00A8230BF07031C1E
:100A9800C003BD1B5B2DBB35BC0DBD0DBE0DBA1B08
:100AA8003B14FF30B735B80DB90DBA0D4A2DB50155
:100AB800BA1F702D3708B0003808B1003908B200E5
:100AC8007F303A05B30032043104300403193B186F
:100AD8006E2D702DB501B50A35080319822D013028
:100AE800BB070030BC3DBD3DBE3D3E1C822DBE3720
:100AF800BD0CBC0CBB0CBF0A0319C00A0726843105
:100B0800031D882DFF303F02031C922D7F302000EB
:100B1800BE008030BD00BC01BB01B02D20000726FF
:100B28008431031D992D01303F020318A22D2000A6
:100B3800BB01BC01BD01BE01B401B02D20003F08BE
:100B4800B600FF30BB05BC057F30BD050030BE01D7
:100B58003618BD173636BE003408BE043E08AB0052
:100B68003D08AA003C08A9003B08A8000800A70007
:100B7800A301A4012008A500A601271CC72D25084C
:100B8800A3072608A43DA535A60DA7362708031DEB
:100B9800C12D2408A1002308A00008002108C000D6
:100BA8002008BF00B7074008B83D0030B93DBA3D3E
:100BB8000800BB0701300318BC070318BD0703185A
:100BC800BE073908BA003808B9003708B800B701B5
:100BD8000800C0002008BF00B70701300318B80795
:100BE8000318B9070318BA07400808002108C0000D
:100BF8002008BF00BB074008BC3D0030BD3DBE3DDE
:100C08002A08A00008004008803AB000803030026E
:100C18000800AC01AD01AE01AF010800A801A901AF
:100C2800AA01AB0108003508BE008030BE05353585
:100C3800C500B41B4514450803192A2E450F282E54
:100C4800B201B301B401B501B4172D2EB201B3013D
:100C5800B401B50131088039BE063135C600B01B74
:100C6800461446080319402E460F3E2EAE01AF012A
:100C7800B001B101B017432EAE01AF01B001B1010F
:100C8800310830042F042E04031D5D2E8030B2017C
:100C9800B301B401B501B4047F30B5043E08B5040E
:100CA8003508B1003408B0003308AF003208AE0090
:100CB80008004508031D652EAE01AF01B001B10162
:100CC80008004508BF00C0014608BF02031CC00356
:100CD8007F30BF070318C00A3508BD003408BC00C0
:100CE8003308BB003208BA00B201B301B401B50140
:100CF800C101C201C301C401C6011A30460203186A
:100D0800B12E46080319962EBA35BB0DBC0DBD0D84
:100D1800B235B30DB40DB50DC41B3214C135C20DB7
:100D2800C30DC40D31083D02031DA42E30083C023A
:100D3800031DA42E2F083B02031DA42E2E083A02E1
:100D4800031CAF2E44172E08BA022F08BB3B3008ED
:100D5800BC3B3108BD3BC60A812E3D083C043B0420
:100D68003A04031D4114B41BC82EB235B30DB40D9B
:100D7800B50DC41B3214FF30C135C20DC30DC40DEF
:100D8800BF07031CC003B72EC601C41FDD2E4108D0
:100D9800B6004208B7004308B8007F304405B900E0
:100DA80038043704360403193218DB2EDD2EC60149
:100DB800C60A46080319EF2E0130B2070030B33DCA
:100DC800B43DB53D351CEF2EB537B40CB30CB20CA1
:100DD800BF0A0319C00A1B278631031DF52EFF30F1
:100DE8003F02031CFC2EFF302000BF001527863170
:100DF80020001B278631031D032F01303F020318F3
:100E08000A2F2000BF0115278631BE0120003F08A8
:100E1800C500451C112FB417122FB4134536B50061
:100E2800522EC001B201B301B401B5010800400857
:100E3800803AB600803036020800A200A401740887
:100E4800031D232F22000E1473082100A30072082B
:100E5800A2007108A1007008A00020002108031951
:100E6800732F210091120A3023009B001A309C0036
:100E7800210091167E302300A000682F22088600EA
:100E8800013087000108A3001130A20A23060319C4
:100E98005D2F1230230603195D2F13302306031923
:100EA8005D2F7E30230603195D2F7D302306031D39
:100EB800642F2030A306982787317D308100A40A4B
:100EC80098278731230881002000A40AA003200F57
:100ED800422F982787317E308100A40A8B2F21006A
:100EE8009112403023009B0003309C002100911692
:100EF800872F982787312208840001308500000851
:100F08008100A20AA40A2000A003200F7D2F240834
:100F1800EC0022008C140000000000002000ED010D
:100F2800ED0A2100111608002408A03E86000130B1
:100F38008700080022008C018E01303021008C00CF
:100F48003A308E00173023008C003F308E0024008A
:100F58008C018E012100951725008C018E013730F8
:100F680026008C003F308E0005303C00A400143071
:100F78003D0090007030210099009A0198012200EC
:100F8800960116302100970090302200980080309A
:100F980099000D3021009D00A0309E009F01D230A5
:100FA8002A009100083023009F0090309D002430D3
:100FB8009E0040309B0003309C007C302800960047
:100FC800073097002100911692140B178B17080011
:0C0FD800640080010131890BED2F003412
:101D4200A8002808031DA31FB62E2009AA002109F6
:101D5200AB002209AC002309AD00AA0A0319AB0AA1
:101D62000319AC0A0319AD0ABE2E2308AD002208DE
:101D7200AC002108AB002008AA0023082204210499
:101D82002004031DC92EA001A101A201A301080084
:101D92009630A900FE302D050319DC2EA90A0A2768
:101DA2008E31CB2E0130A90AAA070030AB3DAC3DE3
:101DB200AD3D0A278E31FF302D050319EA2ED32EB1
:101DC20002302902031CEC2EA903AA35AB0DAC0D7F
:101DD200AD0DAC1FE12E291CAC13A9362908A700B2
:101DE200A601A501A4012408AA042508AB0426081B
:101DF200AC042708AD042808031DA31F012FAD174B
:101E02002D08A3002C08A2002B08A1002A08A0007C
:101E12000800AD36AC0CAB0CAA0C08004A08CF0087
:101E22008030CF054A35D900C91B59145908DA0048
:101E3200DB014A08DF004908DE004808DD004708E8
:101E4200DC00FF30DC05DD057F30DE05DF015A08EE
:101E52005B040319312FDE175A0A5B04031D352F69
:101E6200DC01DD01DE01DF015A085B04031D3E2FA8
:101E7200C701C801C901CA0108004F0803194B2F45
:101E82004030E301E2008030E101E001E204FF3092
:101E9200E304EE2F5A0A5B04031D562F7F30E30042
:101EA2008030E200E101E001EE2F8130DA07031C0D
:101EB200DB035A08D9000130D9057F30DB37DA0C51
:101EC200DA070318DB0A5C35D1005D0DD2005E0D26
:101ED200D3005F0DD4000130DC01DD01DE01DF0142
:101EE200D800D701D601D501590803197C2FD13565
:101EF200D20DD30DD40DD001193050020318BE2FCC
:101F02005508DC045608DD045708DE045808DF04CF
:101F12005F085402031D972F5E085302031D972F7B
:101F22005D085202031D972F5C085102031CA42F67
:101F32005C08D1025D08D23B5E08D33B5F08D43B0C
:101F4200F7278F31B42F5509CB005609CC0057091A
:101F5200CD005809CE004B08DC054C08DD054D08C4
:101F6200DE054E08DF05D836D70CD60CD50CD13598
:101F7200D20DD30DD40DD00A7D2FDF36DE0CDD0C51
:101F8200DC0C5F08D8005E08D7005D08D6005C084C
:101F9200D5000130D505D601D701D801DF36DE0CD8
:101FA200DD0CDC0CF7278F315F1CDE2FDF36DE0CF9
:101FB200DD0CDC0CDA0A0319DB0A5C08E0005D08C0
:101FC200E1007F305E05E200E3015A08D9005918AA
:101FD200E2175936E300E313EE2F6308CA006208E2
:101FE200C9006108C8006008C70008005508DC077E
:0E1FF2005608DD3D5708DE3D5808DF3D08006B
:020000040001F9
:04000E00A43FFF1FED
:00000001FF
